:020000020000FC
:1000000005C050C0189572C018951895FF27EEE1ED
:10001000EA95F083E9F7479ABC9AC498BB9AC39AC9
:10002000B998C198BA98C29AB898C09A1BB700E418
:10003000012B0BBF19B702E0012B09BF15B70EEF5B
:10004000012305BF15B702E0012B05BF15B700E27C
:10005000012B05BF789413B70BEF012303BF13B730
:100060000EEF012303BF00E002BF4B7F88958BE1B9
:1000700013B704E0012B03BF13B701E0012B03BF4B
:10008000882361F44460C49813B70BEF012303BFC6
:1000900013B70EEF012303BF00E002BF042F01706E
:1000A00079F7D9CF0FB6102E212E042F017081F4CD
:1000B000416015B701E0012B05BF042F027021F448
:1000C000C49A4260C3980EC0C4984D7FC39A0AC0B8
:1000D0004E7F15B70EEF012305BF042F047011F0FA
:1000E0004D7FC39A122D012D0FBE18950FB68A951C
:0400F0000FBE189592
:00000001FF
